:020000040800F2
:10000000A838012015030008B7610008695C0008E2
:10001000B5610008A34500088D72000800000000CB
:10002000000000000000000000000000A76B0008B6
:10003000A545000800000000D9610008A96B000870
:100040002F0300082F0300082F0300082F030008C8
:100050002F0300082F0300082F0300082F030008B8
:100060002F0300082F0300082F0300082F030008A8
:100070002F0300082F0300082F0300082F03000898
:100080002F0300082F0300082F0300082F03000888
:100090002F0300082F0300082F0300082F03000878
:1000A0002F0300082F0300082F0300082F03000868
:1000B0002F0300082F030008616C00082F030008BD
:1000C0002F0300082F0300082F0300082F03000848
:1000D0002F030008217200082F0300082F030008D7
:1000E0002F0300082F0300082F0300082F03000828
:1000F0002F0300082F0300082F0300082F03000818
:100100002F0300082F0300082F0300082F03000807
:100110002F0300082F0300082F0300082F030008F7
:100120002F0300082F0300082F0300082F030008E7
:100130002F0300082F0300082F0300082F030008D7
:100140002F0300082F0300082F0300082F030008C7
:100150002F0300082F0300082F0300082F030008B7
:100160002F0300082F0300082F0300082F030008A7
:100170002F0300082F03000800000000000000000B
:100180002F0300082F03000800F002F800F0B2F877
:100190000AA090E8000C82448344AAF10107DA45E2
:1001A00001D100F0A7F8AFF2090EBAE80F0013F082
:1001B000010F18BFFB1A43F001031847E8A603001C
:1001C00008A703000A444FF0000C10F8013B13F09D
:1001D000070408BF10F8014B1D1108BF10F8015BA0
:1001E000641E05D010F8016B641E01F8016BF9D193
:1001F00013F0080F1EBF10F8014BAD1C0C1B09D1EA
:100200006D1E58BF01F801CBFAD505E014F8016B5B
:1002100001F8016B6D1EF9D59142D6D370470000ED
:100220000023002400250026103A28BF78C1FBD8FF
:10023000520728BF30C148BF0B6070476E2902F0DB
:10024000FE87702902F0138566290FF09C826529CC
:100250000FF0998267290FF0968261290FF095823D
:1002600003681B0A28BF41F08001692902F0468417
:10027000642902F04384752902F040846F2903F059
:10028000CE82782902F0DF84E92902F07384E42920
:1002900002F07084F52902F06D84EF2903F0CB821F
:1002A000F82902F0DE840368DB0928BF41F08001F1
:1002B000632903F01282732903F01782E32903F004
:1002C000CB84F32903F0D084002070471FB50FF0D2
:1002D0000CFA03F0EDFA0400002000210EF080FE7D
:1002E000401C6060002000210EF064FEE0601FBD35
:1002F00010B510BD03F056FD1146FFF7E7FF0CF0F7
:10030000CFFD03F07DFD03B4FFF7F2FF03BC07F060
:1003100074FD00000948804709480047FEE7FEE7F2
:10032000FEE7FEE7FEE7FEE7FEE7FEE7FEE7FEE7A5
:1003300004480549054A064B704700001D6C00083B
:1003400089010008A8320120A8380120A834012022
:10035000A834012010B5FF49C4074FF040434FF0C7
:10036000804205D08B66CB66C1E91C328A67CA67BA
:10037000840709D5C1F80031C1F80431C1E942321E
:10038000C1F81021C1F81421400709D5C1F89831EE
:10039000C1F89C31C1E96832C1F8A821C1F8AC218B
:1003A00010BD2DE9F14F002082B0824681460298AF
:1003B000806F00287ED000220020401C0428FCDB37
:1003C000029800EBC203D3E90010A1FB0167D3E957
:1003D000065400FB017701FB0077AB46AD1BCDE96E
:1003E00000670326A5FB06C8A64664EB070404FBCA
:1003F0000684002705FB0745DDE900671CEB0604C2
:100400007D41A4FB016705FB017504FB0055D3E9A1
:100410000C47341B65EB0705CDE900455D46A5FBA0
:1004200005670324A6FB04580EFB0B770BFB0E7726
:1004300007FB04844FF0000C06FB0C44D3E9126365
:10044000761B63EB04034C18A4FB017C40EB000516
:1004500005FB01C504FB0055A7FB014C05FB01C5CD
:1004600007FB0055A4FB017C05FB01C504FB005400
:10047000F6196341DDE90045AD0045EA9475A40035
:10048000A4FB017C05FB01C104FB0014F01B73EB12
:10049000040103D50023404263EB0101BAEB0004E1
:1004A00079EB010301DA82468946521C032A83DB79
:1004B000504600E016E049460FF0A4F800EE900A1E
:1004C000A54890ED0E1A80EE810A10EE100A0FF08A
:1004D00017F9A04AD2F80C2203B0920000F046BCF3
:1004E00002F051BA002003B0014600F044BC2DE9EF
:1004F000F14F0020009A0146926FE2B300240022DF
:10050000521C042AFCDB009A02EBC405AA46D5E97A
:100510000029A2FB023CD5E906769E46FB1A03257C
:10052000A3FB057809FB02CC02FB09CB66EB0B06AB
:1005300006FB05854FF0000C03FB0C5617EB0E0372
:10054000A3FB027C46EB0B0606FB02C203FB09235E
:10055000DAE90C25BA1AAB4103D50025524265EB06
:100560000303851A71EB030501DA10461946641C72
:10057000032CC4DB00E015E00FF044F800EE900A15
:10058000754890ED0E1A80EE810A10EE100A0FF0F9
:10059000B7F8704AD2F80C2200F0F0BB02EB42022E
:1005A00002F0F1B90020014600F0EDBB2DE9FE4359
:1005B000684D80460024D5F810626F4605EBC401F3
:1005C0003246D1E9020102F0CBF905EB8401B1F822
:1005D00084100904401847F8240004F10104032C96
:1005E000ECDB5C489821083002F002FD0120FFF7A7
:1005F000B1FE95F8E8010199042807D1D5F8180251
:10060000B0F5201F02DD052085F8E801524C009866
:10061000636AC11A01D40E4600E01E1A0198A26A4C
:10062000801A01D4074601E0019FD71BBE4206DDB8
:10063000002901D4084606E00098181A03E00028B3
:1006400001D50198101A029AE16A521A01D4134690
:1006500001E0029BCB1A834205DB002A01D410463D
:1006600001E00298081AD8F824100BF0C2FED5F861
:100670001812814206DD032168460CF05BFA022065
:100680000CF0AAFA009860620198A0620298E062F9
:1006900000F07CBB304AC2E9020170472E4AC2E931
:1006A000060170472C4AC2E904017047294AD2F872
:1006B000E0310360D2E97402C1E900027047254AC3
:1006C000D2F8E0310360D2E97602C1E90002704756
:1006D0002DE9FE4781460020EA468A6F22B901EBE8
:1006E000800339F91020DA6701EB800239F9103004
:1006F000D46F1D1B4AF82050136E9D4200DD156615
:10070000D36E9D4200DAD5660123002422464FEACB
:10071000E578A3FB056704FB057403FB0844334637
:1007200002EB420601EBC60606EBC00CDCE90076E4
:10073000FF186641CCE90076521C042AE9DB401C14
:100740000328CADB886F401C88670120C1F890002D
:1007500000F01FBB882B0120E82D012030B50023BD
:1007600002EB830550F823405B1CEC66032BF7DBA0
:10077000C2F88810916F79B1002102EB810450F822
:100780002130E56F5B1B00D55B42256E9D4200DA90
:100790002366491C0329F0DB906F401C9067012001
:1007A000C2F8900030BD10B500210B4600EB81026D
:1007B000491CD46ED46713660329F7DBD0F8881080
:1007C00040F8783FC0E9051310BDD0E92210081A9F
:1007D00070470146D1E91802824200DB1046896E5B
:1007E000814200DB084670472DE9F0478046501EE5
:1007F000012686408946C2F12007404602F0C3F830
:1008000004460D46404649463A4602F0A9F83A46A3
:1008100002F0B9F8B04203DD641C45F1000505E0C3
:100820007142884202DA641E45F1FF3520462946AE
:10083000BDE8F087F7490020086248628862C86214
:10084000086448648864C864086348638863C8634C
:10085000086548658865C865704730B5EE4AD2F8C6
:10086000483223B1D2E990542D1A8C4101DAC2E901
:1008700090015B1CC2F8483230BD30B5E64AD2F870
:10088000583223B1D2E994542D1A8C4101DAC2E9CD
:1008900094015B1CC2F8583230BD30B5DE4AD2F844
:1008A00028322BB1D2E98845041B71EB050401DA2B
:1008B000C2E988015B1CC2F8283230BD30B5D64A87
:1008C000D2F838322BB1D2E98C45041B71EB050408
:1008D00001DAC2E98C015B1CC2F8383230BD2DE967
:1008E000F0470246CC48012508308046C36E016EB1
:1008F000046FC91A436E1B1B8B4200DB1946836EC3
:10090000D8F87400181A884200DB0146C14F6037DE
:10091000F86B884204DA002400F010FA204687E7DA
:10092000108E0124BC4EC0054FF000010ED5D6F844
:1009300080303068834209DBB2F87420D20506D5D6
:10094000D6F8B021824201DB052400E00C4674B3E6
:10095000600719D5AF48C8388146FFF722FD000D62
:1009600040EA01300915C6E97601D7E904321B1ABD
:100970008A4102DA0025FFF7A1FF9821484602F0DC
:1009800037FB0420FFF7E6FCE0070ED04046FFF7F8
:1009900008FDC6E97C01D7E906340246181A8C41E5
:1009A00003DA00251046FFF778FF284640E7FFE707
:1009B00002203DE71EB5044690F83000C0F38110D8
:1009C000032804D19449201D0831FFF781FE94F8D3
:1009D0007400C0F38110032805D18E4904F148004A
:1009E000C839FFF775FED4F8B8008B4AC0F38113FD
:1009F000A0326946032B0FD0C0F3411003281AD14F
:100A0000002004EB8003D3F8A0309B1341F8203082
:100A1000401C0328F5DB09E0002004EB4003B3F998
:100A20008C3041F82030401C0328F6DB6846D4F8AF
:100A3000C010FFF793FE1EBD2DE9F04705460020CC
:100A4000296BCA056AD501F05001402900D1012067
:100A500095F8741001F05001402900D1012095F85B
:100A6000B8106D4C01F05001402900D030B100F0B9
:100A700065F90020C4F8E00184F8E801654ED4F877
:100A80000812E86A6036814228D0C4F808020A28B1
:100A9000306B0CDA40002060716B00EE100A491CCC
:100AA000C4F80C12B8EEC00A07F0AAF805E02060FE
:100AB000706BC4F80C0296ED0E0A84ED850AD4F82A
:100AC0000C02C0F11000C4F810024FF48040C4F8CA
:100AD000180296F8341019208840F0632846FFF772
:100AE00069FF94F8E811DFF8309105274FF002080C
:100AF00009F1A009072911D2DFE801F0041127301C
:100B00005E7E8500D4F8E001411CC4F8E0110A289B
:100B100004DB00F013F9012084F8E80186E0D4F842
:100B20009800012810D12846FFF7D9FE10B10128FE
:100B300003D004E084F8E87101E084F8E8814846D5
:100B4000FFF731FEFFF776FE70E0032084F8E8013E
:100B50002846FFF72BFD00F0F1F867E02846FFF785
:100B6000BEFEE8B3012861D1B5F8B8004FF0040328
:100B7000C00515D54846FFF72CFE0146C017C4E94D
:100B80007410D6E902C2BCEB0101824102DA84F89A
:100B9000E87108E04846FFF718FE316A884202D340
:100BA00084F8E83124E0F4E97601FFF766FED4E941
:100BB0000601FFF752FE39E0B5F8B800C0050BD5C5
:100BC0004846FFF706FE0146C017C4E97410D6E98F
:100BD0000232591A824108DB2846FFF780FE00E006
:100BE00003E010B1012803D020E084F8E8711DE093
:100BF0002846FFF7DBFCD6E7062084F8E801012051
:100C00000BF0EAFF0DE02846FFF769FE012805D04A
:100C100038B10BE0882D0120882B012084F8E88171
:100C200004E000F08BF84846FFF7BDFD0020FFE52B
:100C300010B500214010002802D001F10101F9DCBB
:100C40004FF0010001F1010100FA01F0434C00EE08
:100C5000100AC4E90C01B8EEC00A06F0D1FF84ED19
:100C60000E0A94F8341019208840E06310BD10B5C6
:100C70004FF418713A4802F0BBF94021374802F0AE
:100C8000B7F90720FFF766FB344840F2DC51002239
:100C9000C0E906121421C0E902124FF41671C0E92E
:100CA000041230492E4C01620120C4F8E4011920DD
:100CB000FFF7BEFF0020C4F8080210BD10B54FF4C6
:100CC0001871274802F094F90720FFF743FB2448E6
:100CD00001210022C0F8E41180F8E811032101206D
:100CE0000BF070FF07226421AFF2B320BDE8104083
:100CF0000BF0C4BD10B501200BF06EFFAFF2C720A2
:100D0000BDE810400BF0C2BF10B5FFF7B0FF0028E0
:100D100005D1AFF25700BDE810400BF037BE10BD53
:100D200010B5FFF7E7FFAFF26B00BDE810400BF026
:100D3000D3BF0B49D1E97C0170477047084810B513
:100D40009821083002F054F99821074802F050F930
:100D5000BDE810400520FFF7FDBA0000E82D012096
:100D6000882B01200008AF2FC02C012030BCBDE82B
:100D7000C04FFFF7B5BB30BCBDE8C08F18BCBDE8A5
:100D8000E04FFFF70BBC18BCBDE8E08F06BCBDE828
:100D9000F8830EBCBDE8F087F0B516462DED028B4A
:100DA00085B01F460C4605463C22FE49A1F10C00C9
:100DB00002F0BFF8FB4950224C31A1F1100002F0C3
:100DC000B8F8F84996E80D000C3901F13C0C8CE8B4
:100DD0000D005CCC01F1980080E85C009FEDF28A88
:100DE000D1F82401401CC1F82401062802DD0620A8
:100DF000C1F82401C0F106060C46A0351AE004EB48
:100E000006116A46384648310BF04FFB06EB4600A8
:100E100004EB80016A4628460AF0A6FEF0EEC00AFE
:100E2000B0EEC81AF4EEC10AF1EE10FA01D2B0EE3B
:100E3000408A761C062EE2DB05B0B0EE480ABDEC17
:100E4000028BF0BD70B514462DED048B0E46B0EE4E
:100E5000408A00259FEDD59A416BF0EE498A002922
:100E600004DBD0F8BC00032800D10125CD492422A1
:100E7000B431081F02F05DF8CA480C38002380ED39
:100E8000388A00EB83015B1C91ED2F0A0A2B70EE70
:100E9000288AF6DBB2EE040AC822C8EE800AC0ED4A
:100EA000390A9FEDC31A322E1DDB9FEDC20AC0F82E
:100EB0001C21B6F57A7FC8EE001A00EE104AB8EE93
:100EC000C00A61EE801A81EE810A2FDB9FEDBA0A1B
:100ED000C8EE001A00EE104AB8EEC00A61EE801AA1
:100EE00081EE810A22E041F2883194FBF1F149421E
:100EF000D0F81C3101EB8101C918C0F81C1102D5D2
:100F00000021C0F81C119FEDAD0AC8EE001A00EEDA
:100F1000104AB8EEC00A61EE801A81EE810A29B942
:100F2000D0F82811012901D1B0EE490AD0F82011DA
:100F300009B1B0EE480AA2498C4201D1B0EE480A8C
:100F4000B5EEC00AF1EE10FA01D0C0ED3A0A90ED0C
:100F50003A1A9C4B71EE600AF0EEE00A10EE901A1D
:100F6000994227DDD0ED2E0AF5EEC00AF1EE10FA17
:100F700020D1002D1ED0C0F81C2120460EF0FFF914
:100F800041EC190B18EE100A0EF00EFB9FED8E1BB4
:100F900053EC112B0EF06CF853EC192B0EF006FAF3
:100FA0009FED8B1B53EC112B0EF062F80EF02EF818
:100FB00000EE100ABDEC048B70BD2DE9F04F044625
:100FC0002DED048BA9B09FED799A4FF0000A754E74
:100FD000CDF810A00C3ECDF814A0CDF818A0D6F88E
:100FE0002011022003297DD000209FED7B8A20ADB7
:100FF00006EB800191ED2A0A05EB8001401CB8EE5A
:10100000C00A042820EE080A81ED000AF0DB0FA8D0
:101010000AF022FF24A80AF065FF624B24AA9C3341
:101020000FA920462793FFF7B7FEF0EE408A04F1A0
:1010300018000AF0B5FF81096148D6F830218242D4
:1010400000DB0246B0EE680A2046FFF7FBFED6ED55
:101050003B0AB3460BA820EE200A86ED2E0A0AF0C2
:10106000FBFE13A90BA80BF09BFB4E480FAAF03018
:101070000BA906460BF019FA31460BA80BF0F2F952
:1010800000210DF13C080DF14C090DF1100E00226C
:101090001346104601EB410C0CEB000759F8276092
:1010A00008EB8007401C7F680328C6FB0723F3DB9F
:1010B000900F40EA83004EF82100491C0329E6DB2B
:1010C000DBF820015E4600286AD05046CDF818A013
:1010D000404200EE100AB8EEC00A20EE080A06F000
:1010E0001FFC00E0A2E08DED000A8DED019A8DED70
:1010F000029A0698404200EE100AB8EEC00A20EEAE
:10110000080A06F0B5FC8DED030A9DED060ADFED39
:10111000330AD6F83001B8EEC00A41F2883190FBAC
:10112000F1F080EE201A00EE100AF8EEC01A81EEFF
:10113000210AB0EE001AC0EE011ABDEEE10A10EE6F
:10114000101A490000EE101A0691B8EEC00A60EEBF
:10115000200A00EE100AB8EEC00A20EE800ABDEEAA
:10116000C00A8DED060AB8EEC00A20EE080A06F0A5
:10117000D7FB8DED070A8DED089A8DED099A9DED4F
:10118000060AB8EEC00A20EE080A06F071FC8DEDE2
:101190000A0A1CAA694620A80BF0DFF96A461FE07C
:1011A0004BE00000342E01200024744900000000B0
:1011B00000409C4500004843000048420000C843EE
:1011C00040420F000E2DB23D0000000000007940AB
:1011D000000000000088B34000008030E102374783
:1011E00007A91CA80BF0B9F96F46DFED958AD4F872
:1011F000BC00002813DD002007EB800191ED000A00
:1012000005EB800181ED000A20EE280A06EB800143
:10121000401C0428BDEEC00A81ED2A0AECDBD4F89C
:10122000BC00F6EE009A03280CD108E0C6F82001B5
:1012300029B0BDEC048B00F007B9069848E701F02F
:101240000FFBE0B396ED2A0AB8EEC00A20EE080ABA
:101250008DED1C0A96ED2B0AB8EEC00A20EE080AA6
:101260008DED1D0A96ED2C0AB8EEC00A20EE080A94
:101270008DED1E0A96ED2D0AB8EEC00A20EE080A82
:101280008DED1F0AD6F820010028D1D096ED2E0A48
:1012900020EE290A06F044FB20EE280ABDEEC00A23
:1012A00086ED2A0AC6F8ACA0C6F8B0A096ED2E0AC4
:1012B00020EE290A06F0DCFB20EE280A00E004E01C
:1012C000BDEEC00A86ED2D0A2BE096ED2E0A20EE2B
:1012D000290A06F025FB8DED070A8DED089A8DEDA4
:1012E000099A96ED2E0A20EE290A06F0C1FB8DED33
:1012F0000A0A6A4607A920A80BF02FF968460BF0E6
:10130000D7F9002007EB800191ED000A06EB800180
:10131000401C20EE280A0428BDEEC00A81ED2A0AEE
:10132000F0DBD4F8C01027980BF0AEFBD6F8200104
:101330000028AAD0401E79E770B590F8B810414A4D
:10134000CC064FF000034FF0030101D4C2E948136B
:10135000B0F82041E40509D4048EE40503D5B0F8C3
:101360007440E40502D4C2E948131AE0D2F83411FB
:1013700039B1D0E93013C91A4FF47A73B1FBF3F1E4
:1013800005E0D0F8B01044F62064A14202DBC2F8B8
:1013900030110AE0D2F82C512944C2F82C11A14294
:1013A00001DA002070BDC2E94B31FFF706FEF8E715
:1013B00010B54FF49C71234801F01AFE214C4FF0F8
:1013C00080400021C4F8FC0044F8A80F1D48A83054
:1013D0000BF05AFB4FF47A70B7EE000A606784EDA9
:1013E000110A10BD174880ED3B0A002070471549CF
:1013F000C1F82801002070471249C1F834010020CB
:10140000704704224FF41671AFF2D3000BF036BAD6
:10141000AFF2DB000BF03ABC10B5FFF7C9FF09498A
:101420000020C1F82801C1F83401AFF22900BDE85D
:1014300010400BF0ABBAAFF235000BF04DBC000022
:101440000000804E282E012030BCBDE8C08F000077
:101450001FB501461022684601F026FDF7489DE8B9
:101460000E0080E80E00F6499DF80C0081F8B001EE
:10147000002004B010BD1FB5F0490EC98DE80E0064
:10148000EF49102291F8B0118DF80C10694601F067
:101490000BFD0020EDE72DE9F04F91B0002518215C
:1014A000684601F0A5FD0024182106A801F0A0FD62
:1014B000E348A046C14690F8C01101297ED1D0F87A
:1014C000B8B1D0F8B4A10022C2EBC20000EB4001D9
:1014D000DB4800EB810E9EF850000F90002864D08E
:1014E00000215FE0DDE900076D1C5EF821300E93FE
:1014F000181847EBE376CDE900060EEB8100EDB25C
:1015000043690D93DDE9027C4FEAE376DB1946EB94
:101510000C06CDE90236836ADDE9047CDE170C9304
:10152000DB1946EB0C06CDE90436C06B0E9BDDE9FA
:10153000067C83FB0063360C46EA0346F6194CEB47
:101540002343CDE906630D9BDDE9087C83FB006343
:101550004FEA164646EA0346F6194CEB2343CDE91B
:1015600008630C9BDDE90A7C83FB00634FEA1646A7
:1015700046EA0346F6194CEB2343CDE90A6380FBA8
:1015800000634FEA164646EA034616EB080849EBA5
:1015900023490444584501DA834602E0504500DD02
:1015A0008246491C0F9888429CDC521C052A8BDB22
:1015B000A348AAEB0B01D0F8BC0100E056E0814241
:1015C00054DBA5FB0823E0170026109006FB08302B
:1015D00005FB0900CDE90C2084FB0420110C41EA35
:1015E00000410014CDE90E0106A800EBC601D1E9C7
:1015F0000003A0FB05B203FB0522002100FB012C28
:10160000684600EBC601D1E90001A0FB043701FBED
:101610000471109A00FB0210190C41EA00490CAA4F
:101620004FEA204A92E889000F9983EA070880EA86
:10163000010252EA080212D0421A63EB0703BBEB25
:1016400009006CEB0A0C4FEA0C4141EA104100041E
:1016500001F0ACF97A4901EB8601C1F8A401761CCE
:10166000032EC1DB7648012180F8B01111B00020B3
:1016700000F050B9F8B5724D0E460446D5E96D013B
:10168000091A052291FBF2F1301A90FBF1F0C0B279
:101690008DF80000042801D92020F8BDC0EBC0005F
:1016A00000EB400005EB800191F85000052816D0B2
:1016B000421C81F850209DF80010C1EBC10101EBE4
:1016C000410105EB810202EB8001CE63236842F801
:1016D000203060684861A06888620020F8BD01F190
:1016E0004003181F1022194601F023FC9DF800004A
:1016F0001022C0EBC00000EB400005EB8000011D94
:1017000001F017FC9DF800001022C0EBC00000EBB8
:10171000400005EB800000F11801143001F009FCD5
:101720009DF800001022C0EBC00000EB400005EB6C
:10173000800000F12C01283001F0FBFB0420BAE707
:1017400030B585B0044603A968460AF003FC04A836
:101750000AF08AFC02282BD0D4F8E4000399401A3E
:10176000374991F8B02112B308B3D1F8A421009CF5
:1017700080FB0232150445EA134222440092D1F85C
:10178000A821019C80FB0232150445EA1342224441
:101790000192D1F8AC11029A80FB0110030443EAD4
:1017A000114010440290032168460BF0C3F90CE08D
:1017B000606B032809D10AF0DFFB30B1684603995A
:1017C000FFF758FF08B9FFF766FE05B0002030BDEF
:1017D00010B54FF4E2711A4801F00AFC1848194993
:1017E000C0F8B4114FF4AA01C0F8B8114FF4A02109
:1017F000C0F8BC11012180F8C011002010BD1049B3
:10180000C1F8B801002070470D49C1F8B4010020AB
:1018100070470B49C1F8BC010020704758B1084916
:10182000D1F8A4210260D1F8A8214260D1F8AC110E
:1018300081600020704705207047000004310120BE
:10184000602F01200000D8FF2420F5E720B12D49AA
:1018500081F8C0010020EFE72420EDE7294B93F841
:10186000B1010028E8D0D3E96D10401A052190FBA2
:10187000F1F00020C0EBC00101EB410103EB81015D
:1018800091F8502022B1002100E0491C8A42FCDC82
:10189000401C0528EEDB0020CEE7082296211A48DE
:1018A0000AF0ECBF18480BF0F1B910B5FFF790FF44
:1018B0004FF49A731022154915480BF033F820B9EC
:1018C000AFF229000BF062F808B1012010BD0D49FC
:1018D000012081F8B101002010BD10B5094C94F829
:1018E000B101002808D008480BF0D0F9AFF255003C
:1018F0000BF0F2F908B1012010BD002084F8B1010D
:1019000010BD0000602F0120411700087714000867
:101910005114000830BCBDE8C08F0000F0B51D4672
:101920002DED028B99B090ED000AD0ED010A17461B
:10193000B8EEC00AB8EEE01AF8EEE00A0E4620EE65
:10194000000A044601EE200AD0ED020AB8EEE01AC1
:10195000F8EEE00A01EE200A06F052F9F0EEC00AB5
:1019600010EE900AB0F18D4F7EDDD6ED000AB8EE94
:10197000E01ADFEDFE0A21EE201A8DED041A96ED35
:10198000011AB8EEC11A21EE201A8DED051A96ED56
:10199000021AB8EEC11A21EE201A8DED061A96ED44
:1019A000031AB8EEC11A61EE200ACDED070A9FEDC9
:1019B000F08A10AA8DED0C8AD4ED000A0CA904A8B7
:1019C000F8EEE00A80EE801A8DED0D1AD4ED010AD2
:1019D000F8EEE00A80EE801A8DED0E1AD4ED020AC0
:1019E000F8EEE00A80EE801A8DED0F1A0AF0B5FDD0
:1019F00014A904A80AF042FD6A4614A910A80AF026
:101A0000ACFD9DED021ADDED010ADA4921EE010A75
:101A100000EEA00A10EE100A884202DA9FEDD60A04
:101A200011E010EE100AD549884202DA9FEDD40A7F
:101A300009E010EE100AD349884202DAB5EE000A36
:101A400001E09FEDD10A01EE907AB8EEE12ADFEDD8
:101A5000CF2A8DED088AC2EE221A21EE800A21EEED
:101A6000001A8DED091A00E038E020EEC00A6A463F
:101A700004A98DED0A0A8DED0B8A08A80AF06DFD08
:101A80006A4604A910460AF0CCFC68460AF0CEFD6E
:101A9000DDED000A9FEDBE0A60EE800AFDEEE00A71
:101AA000C5ED000ADDED010A60EE800AFDEEE00AF8
:101AB000C5ED010ADDED020A60EE800AFDEEE00AE6
:101AC000C5ED020ADDED030A20EE800ABDEEC00A74
:101AD00085ED030A19B0BDEC028BF0BD96E80F004E
:101AE00085E80F00F6E72DE9F0410C462DED068B59
:101AF000054690ED000AD0ED010AB8EEC00AB8EE36
:101B0000E01AF8EEE00A20EE000A01EE200AD0ED1D
:101B1000020AB8EEE01AF8EEE00A01EE200A06F03A
:101B20006FF810EE100A4FF07E5800264FF08047F5
:101B300040453FDDD5ED020AB7EE009AF8EEE00A27
:101B4000C0EE808A39EE680A9FED89AAB5EEC00A18
:101B5000F1EE10FA01DCB0EE4A0AF6EE009A20EE41
:101B6000290A06F04DF8B0EE408A38EE890AB5EE43
:101B7000C00AF1EE10FA01DCB0EE4A0A20EE290AA2
:101B800006F03EF8F0EE408A95ED000AB8EEC00A85
:101B900060EE000A95ED010AB8EEC01AB8EEC00A70
:101BA00041EE000AB0EE600A06F02AF810EE100AC4
:101BB000404503DCC4E90076A66025E0DFED740A49
:101BC00028EEA01ABDEEC11A84ED001A95ED011A97
:101BD000F8EEC11A81EE801A21EE081A61EE200A91
:101BE000FDEEE00AC4ED010AD5ED000AF8EEE00AC8
:101BF00080EE801A21EE080ADFED660A20EE200A48
:101C0000BDEEC00A84ED020AE660BDEC068BBDE8BD
:101C1000F08170B590ED000AD0ED010A0546B8EEEE
:101C2000C00AB8EEE01AF8EEE00A0C4620EE000A10
:101C300001EE200AD0ED020AB8EEE01AF8EEE00A52
:101C400001EE200AD0ED030AB8EEE01AF8EEE00A41
:101C500001EE200AB5EEC00AF1EE10FA07D84FF0F7
:101C60008040206000206060A060C86070BD05F00A
:101C7000C7FFB7EE001AC1EE000A9FED450A20EE3D
:101C8000800AD5ED000AF8EEE00A60EE800AFDEE6B
:101C9000E00AC4ED000AD5ED010AF8EEE00A60EEB4
:101CA000800AFDEEE00AC4ED010AD5ED020AF8EE65
:101CB000E00A60EE800AFDEEE00AC4ED020AD5ED0E
:101CC000030AF8EEE00A20EE800ABDEEC00A84EDB9
:101CD000030A70BD70B5044690F8300088B0400625
:101CE0007ED5A069002801DB014600E041424FF4A7
:101CF00080320026284D91420BDAE169002900DA92
:101D00004942914205DA216A002900DA49429142AA
:101D100067DB002800DA40424FF4C80188420BDC40
:101D2000E069002800DA4042884205DC206A002889
:101D300000DA4042884201DD032000E00220A8636F
:101D4000696BA06A814242D0686394ED0A0A9FEDF4
:101D5000131AF8EEC00A80EE810ADFED110A20EEB8
:101D6000200A10EE100A0DF01FFC1BE0000080306E
:101D70000000000017B75139A69BC43B0AD7233C8B
:101D80008FC2753DCDCC4C3ECDCCCC3E0014CD4762
:101D90000000804E000080CE2431012000247449D0
:101DA0000000004E9FEDFA1B53EC112B0DF0FEFAD4
:101DB0009FEDF91B53EC112B0DF0F8FA9FEDF81B7A
:101DC00053EC112B0DF054F90DF0AAFA2863049688
:101DD000296BA0690AF00DFB0590296BE06901E011
:101DE00022E023E00AF005FB0690296B206A0AF046
:101DF00000FB07906A4604A9EB480AF056FB0098DE
:101E0000E94A80010090019869468001019002989A
:101E10008001029003988001039010460AF0EFFAC7
:101E2000E1490846FFF7F5FE08B070BDAE63FBE779
:101E300070B504462DED048B8EB0D0F8200141061C
:101E400076D5D94DD4F81011D84B2A68891AD4F810
:101E50002C215A438A4201DA032100E00221A963BE
:101E6000800504F5887602D5CF493046B5E00021DB
:101E700007A80AF06FF8CC490C223C3107A800F003
:101E8000C8FF20B9D4F82801A96D88427ED02088E7
:101E90006B4680B207AA616A09F0BCFE9DED000A9C
:101EA000DDED010AB8EEC00AB8EEE01AF8EEE00A7D
:101EB00020EE000A01EE200ADDED020AB8EEE01A7B
:101EC000F8EEE00A01EE200A05F09AFEB0EE408A34
:101ED0009FEDB70A68EE000A9FEDB61A80EE810A00
:101EE000DFEDB50A20EE200AD4ED4A0AF8EEE00A4A
:101EF00060EE800A1FED571A80EE810AF6EE000AA6
:101F000020EE209AB0EE490A05F00AFDF0EE408A74
:101F1000B0EE490A05F0ACFD18EE100A4FF0804112
:101F2000884206DA0020C5E912102865686532E0AB
:101F300055E05FED690A68EEA00AFDEEE00AC5ED26
:101F4000120A5FED6C0A20EE200ADDED000AF8EEC1
:101F5000E00A60EE200A80EE881AFDEEC10AC5EDA7
:101F6000130ADDED010AF8EEE00A60EE200A80EEC9
:101F7000881AFDEEC10AC5ED140ADDED020AF8EE7D
:101F8000E00A20EE200AC0EE080A00E00DE0BDEEF7
:101F9000E00A85ED150A07AB93E8070005F13C035D
:101FA00083E80700D4F82801A8657F4903AA4831CF
:101FB00030460AF07AFA7C480AAA5C3003A9044643
:101FC0000AF073FA214630460AF04CFA03AA0AA92D
:101FD00075480AF06AFA744903A8FFF71AFE0EB0B2
:101FE000BDEC048B70BD1FB5044669466E480AF00F
:101FF00039FA6D4A6946203220460AF056FA6A4993
:102000001DCC103181E81D001FBD2DE9F0470446AD
:10201000654E90F8740006F15C0A06F1200801256F
:1020200000F05001103692B004F5887904F15C0795
:10203000402906D094F8200100F0500040280DD02F
:102040001DE031463846FFF74EFDB4F82001C005CB
:102050000CD5514648460AF005FA07E05146484675
:102060000AF000FAB4F87400C00508D569464E4875
:102070000AF0F8F94246694630460AF016FAB4F812
:102080002001C005204602D5FFF7D2FE01E0FFF790
:1020900021FE3246444940460AF007FA94F874009B
:1020A00040066FD5208EB4F820110843C0056DD5C9
:1020B0000FAA394630460AF053FBD4E9172080FBBB
:1020C0000001C2FB0201626E374FC2FB02014FF0FA
:1020D0008042801A71F1020014DB04A809F090FF1D
:1020E000DDE9042080FB0001C2FB0201069AC2FB6D
:1020F00002014FF08042801A71F1020002DB0420DD
:10210000B8630BE0B86B042808D041F2883202288B
:1021100006D0032804D0012852D009E0002507E0AA
:10212000E16E91FBF2F5012D00DA0125032800D0C4
:10213000AD002248002445431098079480022946A8
:102140000AF057F908900F982946404280020AF099
:1021500050F9CDE909040BAA314607A80AF0A5F900
:1021600032460BA910460AF04AF931460846FFF7F5
:1021700050FD69460C480AF075F9424669463046FA
:102180000AF093F912B00020BDE8F08720E00000CB
:10219000112D4454FB210940000000000000704054
:1021A00000000000008066402431012071981C006E
:1021B000DB0F49400000344300008037A69BC40079
:1021C000E06E90FBF2F0012800DA01204500AFE755
:1021D000334619463846E26EFFF7A0FBC9E770B5F3
:1021E0000446008EC105D4F8200107D4B4F8741059
:1021F000C90503D4C10501D4002070BDC0F301207E
:10220000032807D02046FFF700FF2348A16B0AF000
:102210002DFDF1E704F588711F482EC980E82E00D6
:10222000F3E71E480AF032BD1B4810B56C21103888
:1022300000F0DEFE18484FF0804110380161016067
:102240000162C163C165002010BD184810B50822A5
:1022500013A1006800F0DDFD08B1322010BD13228B
:10226000BDE81040C8210D480AF008BB10B5FFF7C3
:10227000DBFF002805D1AFF22D00BDE810400AF0C9
:1022800085BB10BD10B505480AF000FDAFF2450052
:10229000BDE810400AF020BD34310120DF210008E4
:1022A000654D504C20352E3100000000700200209A
:1022B000002803DDFE490122C1E920020020704709
:1022C00010B5B821FA4800F093FE9FEDFA0AF848DD
:1022D00080ED030A9FEDF80A80ED020A9FEDF70AF0
:1022E0004FF0804180ED000AB3EE0E0A80ED010A46
:1022F00041664FF4FA619FEDF20AC16780ED270A4B
:10230000002010BD70B5EA4C002594ED001AB4EE23
:10231000C01AF1EE10FA17D394ED011AB4EEC01AF8
:10232000F1EE10FA10DC2069012817D194ED030AB0
:10233000B4EEE00AF1EE10FA06D394ED020AB4EE20
:10234000E00AF1EE10FA09DD606F20B9D848A16DFE
:1023500018300AF099FB0120C4E91D05D4E91E01DB
:10236000884204DB606F012800D1E565656770BDB8
:1023700010B504462DED028BB0EE408A09F076FDD3
:10238000CB49002220B918EE100ACE4B984202DD4C
:102390000A614A6102E00869002808D148692044BE
:1023A0004861B0F5FA7F02DD0120C1E90402BDEC0D
:1023B000028B10BDF0B58DB00D4614460646694639
:1023C0000AF0EEF909AA314628460AF06EF82946C5
:1023D00030460AF047F80021EC460DF1240E0023A8
:1023E0001A46184601EB41073D180EEB80065CF8D3
:1023F00025507668401CC5FB06320328F4DB980F95
:1024000040EA820044F82100491C0329E7DB0DB0B3
:10241000F0BDA7490020C1F88C00704710B590EDC1
:10242000000AD0ED010AB8EEC00AB8EEE01AF8EEE4
:10243000E00A20EE000A01EE200AD0ED020AB8EE12
:10244000E01AF8EEE00A01EE200A05F0D9FBDFED14
:102450009E0A20EE200A10BD00229549012330B1CA
:10246000012810D0C1F8983041F88C2F31E081ED6F
:10247000280A81ED290A9FED950A81ED2A0AE1E9F2
:1024800024328A607047D1ED280A91ED271A70EE48
:10249000600AF0EEE00AF4EEC10AF1EE10FA16D28C
:1024A000D1F89400401CC1F89400D1ED290A3128DC
:1024B00030EE800A81ED290AE4DD0220DFED840A96
:1024C000C1F8900080EE201A81ED2A1A704741F879
:1024D000902F4A6070472DE9F04798462DED088B04
:1024E0008AB017468A4604469FED788A0025704ECA
:1024F000039504950595D6F8880000287DD009F04D
:1025000047FD10B103A809F017FDD6F880004FF081
:102510000109002817DDC6F8849009F039FD48B19B
:1025200003A809F03DFD8009B0F5C87F02D2D6F8B6
:10253000800004E0D6F88000001BC6F88000002868
:1025400001DCC6F8845009F0B1FE002855D0002007
:102550009FED5D9A57F8201000EE101A58F82010E1
:10256000401CB8EEC00A032860EE090A00EE101AFB
:10257000B8EEC00A20EE800A00EE098AEADB38468F
:10258000FFF74CFFF0EE408A4FF07E5788EE280AA6
:10259000F7EE00AA10EE100AB84201DDB0EE6A0AAA
:1025A00010EE100ADFF82C81BFEE00BA404501D9C9
:1025B000B0EE4B0A05F000F8D6F88C00B0EE40AA59
:1025C00098B196ED000AB4EEE80AF1EE10FA0CDDCF
:1025D00096ED010AB4EEE80AF1EE10FA05D2B0EE7B
:1025E0004A0AD6F89000FFF737FF684609F026FD43
:1025F0002F490C22AC31684600E0E2E000F009FC13
:1026000018B9D6F8980001286BD129489DE80E002A
:10261000AC3080E80E00009818B9019808B902980B
:10262000F0B36846FFF7FAFEB0EE408AB5EEC08A16
:10263000F1EE10FA55D0F2EE049A38EE690A20EE67
:10264000000A05F0DDFA86ED010A38EE290A20EECF
:10265000000A05F0D5FA86ED000A9DED020AB8EEF3
:10266000C00A60EE090AB0EE480A80EE808A18EED1
:10267000100AB84201DDB0EE6A8A18EE100A404531
:1026800001D9B0EE4B8AB0EE480A04F095FFD6EDC2
:10269000270A30EE600A86ED020AB0EE480A00E032
:1026A00024E004F089FFD6ED270A30EE200A14E07A
:1026B000903101200000B4420000B4C2000070421A
:1026C0007B142E3E00401C460000803700000000B6
:1026D00000004842000080BF03E086ED030AC6F810
:1026E0008C50DFF88481F16D21B32FE01FED0D0ACE
:1026F00086ED000AB3EE0E0A86ED010AD6F89800C0
:10270000012808D01FED140A86ED020A1FED170AF2
:1027100086ED030AE5E796ED2A0A96ED271A70EE94
:10272000410A30EE010AC6ED020A86ED030AC6F838
:102730009850D6E70027C6F85C9006EB0710414694
:10274000183009F0BBFB7F1C042FF6DB464906AAB4
:102750000C310F465046FFF72DFE3946504609F022
:1027600081FE03A809F01CFC00EE100ADFED3F0A11
:102770002046B8EE400A20EE200AFFF7F9FDF0EE01
:102780004A0AB0EE680AFFF7BDFDD6E91E0188428D
:1027900001DA2044B067706F90B9306E2044306623
:1027A000B0F57A7F0CDD304930223039A1F11000CC
:1027B000356600F0BEFB2C484146103809F07EFB20
:1027C000706F0AB0BDEC088BBDE8F08770B588B0BB
:1027D000044604A809F086FBD4E93001451A68468E
:1027E00009F03AFB064604AB04F1A002694628460C
:1027F000FFF771FE0AF058F908B0304670BD0422A8
:102800004FF49671AFF23B000AF038B8AFF24300D4
:102810000AF03CBA10B5FFF753FD00280DD112485D
:1028200000215838C0F88C100121C0F88810AFF290
:102830003100BDE810400AF0A9B810BD10B5AFF2E4
:1028400073000AF023FAAFF27B00BDE810400AF0F3
:102850001DBA054901205839C1F88C000020704785
:1028600001485838406F7047E83101200000803C33
:10287000704753EA020C00F069802DE9F04B4FF0ED
:102880000006002B1FBFB3FA83F503FA05F424FA00
:1028900005F65E4012BF1643B2FA82F502FA05F45D
:1028A000C5F120051EBF22FA05FC44EA0C042035C0
:1028B00056EA044C4FEA144418BF641C4FF0000859
:1028C0004FF00009904271EB030C39D3002919BF76
:1028D000B1FA81F701FA07F6B0FA80F700FA07F6C5
:1028E000C7F120071EBF20FA07FC46EA0C06203776
:1028F000B6FBF4FCA7EB0507103F07F01F0BCBF16D
:1029000020060CFA0BFB2CFA06F644BFB346002651
:10291000202FA4BF5E464FF0000B5BEA060C08BFF9
:102920004FF0010B19EB0B09ABFB027C48EB0608DF
:10293000C01B06FB02CC0BFB03CC71EB0C01C1E707
:102940000B46024641464846BDE8F08B13B54FF0B2
:1029500000004FF00001AFF30080BDE81C4070475D
:10296000B2F120030AD5C2F1200301FA02F120FAE4
:1029700003F300FA02F041EA0301704700FA03F1A1
:102980004FF000007047B2F120030AD5C2F12003D6
:1029900020FA02F001FA03F341FA02F140EA0300DF
:1029A000704741FA03F04FEAE171704710B54C10DF
:1029B00084EA530404D54042C1F1000138BF491EE6
:1029C0001B4204D55242C3F1000338BF5B1EFFF720
:1029D00050FF14F0804F04D04042C1F1000138BFD5
:1029E000491E14F0004F04D05242C3F1000338BF17
:1029F0005B1E10BD1CB50C46064B7B44694600901F
:102A0000204600F048FE04460020694600F056FECD
:102A100020461CBDBF0C00000FB4044910B503AA2A
:102A2000029800F067FE10BC5DF814FB1000002057
:102A30000FB41CB5084B06AA7B4469460090059864
:102A400000F029FE04460020694600F037FE2046CB
:102A50001CBC5DF814FB0000810C000070B504463E
:102A600085690068C10601D5302600E02026C00730
:102A700007D070BDD4E9012130469047206A401C40
:102A800020626D1EF6D570BD70B50446856900786C
:102A9000C00707D170BDD4E9012120209047206AEA
:102AA000401C20626D1EF6D570BD70B50C46054603
:102AB000012A05D02878800600D5EA69002302E0C3
:102AC000012305E05B1C934202D2E05C0028F9D1AF
:102AD000A869E618C01AA861286A1844286228461E
:102AE000FFF7BCFF04E0D5E9012114F8010B904782
:102AF000B442F8D32846FFF7C7FF70BD2DE9F04177
:102B00000646002410687529314616A510D000F03D
:102B10002BFB002802DA404213A507E031688A0740
:102B200001D512A502E0490704D511A5012401E051
:102B300000F023FB00210A2206F1240709E0B0FB84
:102B4000F2FCB0FBF2F302FB1C0030307854184664
:102B5000491C0028F3D123462A463046BDE8F041FF
:102B600000F014BB000000002D0000002B0000004E
:102B7000200000002DE9F0418046D21D22F007021E
:102B80000025D2E90002F52915A614D0011E72F124
:102B9000000106DA0023D0EB030063EB020211A66A
:102BA00008E0D8F800108B0701D50FA602E049070E
:102BB00001D50EA601251146002408F1240704E0E2
:102BC00000F082FA30323A55641C50EA0102F7D123
:102BD0002B46324621464046BDE8F04100F0D6BAC9
:102BE000000000002D0000002B000000200000006D
:102BF000F0B40D460188090502D5214C7C4402E061
:102C00001F4C7C440E34002100F1240608E002F041
:102C10000F071209E75D42EA03721B097754491C4A
:102C200052EA0307F3D102780023120704D5702D6E
:102C300006D009B1022311342246F0BC00F0A6BA36
:102C400001231034F8E770B504460D46214610689C
:102C500000F093FA024629462046BDE87040002362
:102C6000C6E7D21D22F00703D3E90023C0E70368BB
:102C7000126843F0200303600823C3610023B7E711
:102C8000837803002DE9F05F894604464FF0000A7F
:102C9000DFF874B1FB44C0F820A02046E168884703
:102CA000002874D0252806D0D4E901219047206A55
:102CB000401C2062F1E700265F462046E168884715
:102CC0002028054607DB312D05D2781910F8200C95
:102CD00008B10643F1E7B00701D526F00406C4F8B1
:102CE0001CA00027C4F818A02A2D09D0284605F0FA
:102CF0007DF838B304EB8708303DC8F8185019E068
:102D000059F8041B204604EB87029161E16888476B
:102D1000012F054618D1E069002820DA26F02006A8
:102D20001DE0D8F8180000EB800005EB40003038BB
:102D3000C8F818002046E1688847054605F056F8AF
:102D40000028EED1012F0AD02E2D08D12046E168AF
:102D500088477F1C0546022F46F02006C4DBA06989
:102D6000002803DA404246F00106A061F00701D0D6
:102D700026F010066C2D0BD0682D09D04C2D39D0C3
:102D80006A2D35D0742D35D07A2D33D016E038E049
:102D9000E1682F4620468847B842054609D16C2F86
:102DA00026D04FF48060E1680643204688470546F8
:102DB00004E06C2F1AD04FF4807006430DB3A5F1D8
:102DC0004100192802D8203546F400664A462946B3
:102DD000204626604E46FDF731FA80B101280BD01F
:102DE000F61D26F0070000F1080956E74020E4E749
:102DF0008020D8E70020D6E706F104094DE72846F1
:102E000052E7206A00F002B81378030030BCBDE836
:102E1000C09F40EA010310B59B070FD1042A0DD3D0
:102E200010C808C9121F9C42F8D020BA19BA8842AB
:102E300001D9012010BD4FF0FF3010BD1AB1D307EA
:102E400003D0521C07E0002010BD10F8013B11F820
:102E5000014B1B1B07D110F8013B11F8014B1B1B49
:102E600001D1921EF1D1184610BD10B5431C02E0ED
:102E700010F8011B71B18107FAD14FF0013202C87D
:102E80008C1A8C4314EAC211F9D0C01A0A0603D076
:102E9000C01E10BDC01A10BD0A0401D0801E10BD96
:102EA0000902FCD0401E10BD032A40F2308010F011
:102EB000030C00F0158011F8013BBCF1020F6244D5
:102EC00098BF11F801CB00F8013B38BF11F8013B66
:102ED000A2F1040298BF00F801CB38BF00F8013B13
:102EE00011F0030300F0B284083AC0F0088051F8F2
:102EF000043B083A51F804CBA0E80810F5E7121D8E
:102F00005CBF51F8043B40F8043BAFF30080D207AC
:102F100024BF11F8013B11F801CB48BF11F8012B78
:102F200024BF00F8013B00F801CB48BF00F8012B9B
:102F30007047431A28BF9A4240F28884104410F028
:102F4000030F11441EBF11F8013D521E00F8013D50
:102F500010F0030F7FF4F6AF103AC0F00A8010B5FE
:102F600031E91850103A20E91850BFF4F9AFBDE824
:102F70001040530724BF31E9081020E9081044BF6E
:102F800051F8043D40F8043D12F0030F08BF7047AC
:102F9000D20728BF31F8023D48BF11F8012C28BFE5
:102FA00020F8023D48BF00F8012C70474FF00002A6
:102FB0000429C0F0128010F0030C00F01B80CCF14B
:102FC000040CBCF1020F18BF00F8012BA8BF20F8B9
:102FD000022BA1EB0C0100F00DB85FEAC17C24BF0D
:102FE00000F8012B00F8012B48BF00F8012B7047B7
:102FF0004FF0000200B5134694469646203922BF92
:10300000A0E80C50A0E80C50B1F12001BFF4F7AFDC
:10301000090728BFA0E80C5048BF0CC05DF804EBBE
:10302000890028BF40F8042B08BF704748BF20F82C
:10303000022B11F0804F18BF00F8012B70470000E1
:103040004FF0013C50F8042B51F8043B9A4221D137
:10305000A2EB0C03934313EACC1317D150F8042BC3
:1030600051F8043B9A4215D1A2EB0C03934313EAA7
:10307000CC130BD150F8042B51F8043B9A4209D1E0
:10308000A2EB0C03934313EACC13DBD04FF0000008
:10309000704700BFD01A01BAB1FA81F101F01801EE
:1030A00022FA01F0CB40C1F12001DBB2C0B2C01A5C
:1030B0002CFA01F3D11A914311EAC311E6D17047FA
:1030C000704770477047704730B5B0F10A024FEA59
:1030D000900E71F100034EEA817EB0EB0E0061EBC1
:1030E00091014FEA101E4EEA017E10EB0E0041EBFB
:1030F00011114FEA102E4EEA016E10EB0E0041EB5B
:1031000011214FEA104E4EEA014E10EB0E0041EB3A
:103110001141401841F100014FEAD00040EA4170EE
:103120004FEAD10110EB80054FEA810444EA907424
:1031300044EB01046D1944EB0404521BA3414FF00E
:10314000000348BF0A3200D530BD401C41F10001E8
:1031500030BD10B500F0B0FB006810BD10B50446DE
:1031600000F0AAFB046010BD09684A0501D540B211
:103170007047C905FCD500B2704709684A0501D5FA
:10318000C0B27047C905FCD580B270472DE9F04741
:103190000D4699469246044600F1240801688806C7
:1031A00004D5E06921F01001216000E00120A8426F
:1031B00001DD471B00E00027A1697A1902EB090035
:1031C000081AA0612078C00602D42046FFF746FC0A
:1031D000002608E0D4E901211AF806009047206A89
:1031E000401C761C20624E45F4DB2078C0060AD5D0
:1031F0002046FFF733FC06E0D4E901213020904758
:10320000206A401C2062381EA7F10107F4DC07E0A9
:10321000D4E9012118F805009047206A401C20627B
:10322000281EA5F10105F3DC2046FFF72DFC2078D0
:10323000000602D50220BDE8F0870120FBE71168F7
:103240000268006A530501D508700AE0D30501D56C
:10325000088006E0130603D5C217C1E9000200E0AA
:1032600008600120704770472DE9FF4F0C461E464D
:103270004FF0FF378BB0D2E90001DDF860800A9093
:103280008A46C1F30A5505B93D46002108464FF06C
:103290000000BAF1000F00F4400005DA00EB8000F6
:1032A0004FF4400101EA50004FEA9059B9F1010F83
:1032B00000DDB9460A9850EA4A000ED044F6105094
:1032C000A5F2FF3545432F14B8F1000F1ED075420B
:1032D000291E1EDDC9F100021CE0B8F1010F4FF0FC
:1032E000000001D0302103E0F24305E02154401CEE
:1032F000B042FBDB30460022002121540B99C1F87B
:103300000880C1E900200FB000F0BCB9BD1B6D1CE6
:10331000DEE74A4600DA694206A800F0A9FC06ABDF
:1033200093E8070003AB83E8070050460A9900F0D2
:1033300070FD8DE80700A0F500501F38009003983D
:10334000002D0ADD42F21F014A460844002303A96A
:103350000390684600F0D9FF09E0A0F500504A4606
:103360001F38002303A90390684600F0E3FF8DE8AF
:1033700007000004000C03D04FF0FF30410800E0CC
:103380001046B8F1000F03D00022009215461EE04F
:10339000751E05D4FFF798FE303262556D1EF9D5C3
:1033A000B3460122084302D000227F1C04E02078AB
:1033B000302801D100227F1E002A099784D01DE009
:1033C000112D07DAFFF780FE303262556D1C50EA8E
:1033D0000102F5D1084302D00098C8B10EE00021E7
:1033E000681E05E0235C625C63542254401E491C45
:1033F0008142F7DBAB46A81B401E0990002004F871
:103400000B000B98099AC0F80880C0E9002B7AE7F6
:1034100011264FF0000857E72DE9F04F8846044683
:10342000D21D22F0070191B0D1E90001CDE90A01D6
:1034300004F096F802460B98C00F01D02D2007E04B
:103440002068810701D52B2002E0202101EAC0007D
:10345000032A099001D0072A05DB0346414620468E
:1034600000F0B0FB0BE12078800601D5E06900E0B8
:103470000620B8F1650F814606D0B8F1660F18D066
:10348000B8F1670F70D131E00020B9F1110F009051
:1034900001DB112301E009F101030AAA01A90CA82B
:1034A000FFF7E2FEDDE90C70002609F10105834615
:1034B00047E001204B4600904FF000470AAA01A9BF
:1034C0000CA8FFF7D1FEDDE90DB00C995D46002692
:1034D00010B909F101000D18B9EB050003D4C0F1D2
:1034E000FF3609F10105A5EB09002BE0B9F1010F49
:1034F00001DA4FF001090020B9F1110F00904846A0
:1035000001DD112300E003460AAA01A90CA8FFF778
:10351000ABFEDDE90C704D4600268346207800079F
:103520000AD4AB4500DA5D4601A8012D04DD41193E
:1035300011F8011C302907D04F4502DA17F1040FAA
:1035400004DA012082460FE06D1EEEE7002F02DC58
:10355000ED1B3E4403E0781CA84200DD7D1CB81B37
:1035600000F1010A4FF000472078000703D4AA4574
:1035700001DB4FF0FF3A0021B7F1004F0DF1430896
:103580008DF8431024D002202B23002F01DA7F4234
:103590002D230A21021EA0F1010000DC5FB197FB80
:1035A000F1FC97FBF1F201FB1C7C17460CF1300C8F
:1035B00008F801CDEEE7A8F10100037021880905A4
:1035C00001D5452100E06521A0F1010800F8011CAA
:1035D00009980FA9A1EB0807FF1D00B101204119AF
:1035E00001EBEA70A1693844081A401EA0612078F6
:1035F000C00602D42046FFF731FA099828B1D4E971
:1036000001219047206A401C20622078C00622D504
:103610002046FFF723FA1EE0002E04DBB34502DD4F
:1036200001A8805D00E03020D4E901219047206AA4
:10363000401C2062761CAAF101005FEA000A0AD150
:1036400000F036F9C0680168405CD4E90121904778
:10365000206A401C2062281EA5F10105DCDC07E081
:10366000D4E9012118F8010B9047206A401C206220
:10367000381EA7F10107F3DC2046FFF705FA032007
:1036800011B041E630BCBDE8C08F000001694A1CA2
:1036900002610878704700B58FB0CDE90131002193
:1036A000059105497944CDE9031011466846FFF7B5
:1036B000E9FA0FB000BD0000E5FFFFFF0A6802F85D
:1036C000010B0A60704710B5436913B1AFF3008076
:1036D00001E0FFF7EAF9012010BD127800F12401A2
:1036E0000A7000224A700122EDE711684FF0FF32A4
:1036F000E9E70000074B70B50D467B44FFF7CBFFB1
:103700000446284600F026FB10B14FF0FF3070BD94
:10371000204670BD577400002DE9FF5F15468A46AC
:103720000446DFF8AC80F8440027D8E900103E4694
:10373000CDE9001010E03AF816106A4602A800F031
:103740000DFB411C07D02178890603D5E2693918A1
:1037500091420DD80744761C2078800602D5E06996
:10376000B84205DDAE42E6DB3AF816000028E2D1A9
:10377000A069C01BA0612046FFF770F9D8E90010CE
:10378000CDE90010002017E03AF818106A4602A8A8
:1037900000F0E4FAB0F1FF3F81460BD000250DF1B7
:1037A000080B05E0D4E901211BF8050090476D1CCA
:1037B0004D45F7D308F10100B0428046E4DB206AB2
:1037C000384420622046FFF75FF900F003B800009C
:1037D000926D03003FBCBDE8C09F000030B40021E3
:1037E00000F1240408E002F00705D208303542EA6F
:1037F0004372DB086554491C52EA0305F3D104689F
:10380000002310A2250707D5A40600D421B1C4695E
:1038100001230DA2641EC46130BCFFF7B7BC10B514
:10382000044621461068FFF7A8FC02462046BDE882
:1038300010400023D2E7D21D22F00701D1E9002376
:10384000CCE70000000000003000000010B5203A76
:10385000C0F00B80B1E81850203AA0E81850B1E849
:103860001850A0E81850BFF4F5AF5FEA027C24BFFF
:10387000B1E81850A0E8185044BF18C918C0BDE8F6
:1038800010405FEA827C24BF51F8043B40F8043BBF
:1038900008BF7047D20728BF31F8023B48BF11F874
:1038A000012B28BF20F8023B48BF00F8012B7047CE
:1038B00000487047683201200048704748320120B4
:1038C0002DE9F04F04460D46D21D22F0070089B0C5
:1038D000D0E900974846394603F042FE0246F80F09
:1038E00001D02D2307E02068810701D52B2302E0BA
:1038F000202101EAC0038DF820300BB1012000E047
:103900000020032A824601D0072A04DB29462046EC
:1039100000F058F93FE12078800601D40D2500E041
:10392000E569C7F30A560D2D49DA00214FEA175B06
:1039300008464FF00000002F00F4400007DA00EBCB
:1039400080004FF4400100EBD07001EA6000811567
:10395000012901DD4FF0FF3100224FEA850CBCF157
:10396000180F06D31346ACF118004FF08052C24036
:1039700003E04FF4801323FA0CF30CF10C0CBCF1B0
:10398000200F04D3ACF1200C09FA0CF001E007FA87
:103990000CF000294FF0004801DD18B90FE00ED1FE
:1039A00040450CD319EB02095F4121B9404502D1D2
:1039B0009F4329EA0209BBEB175F00D0761C2088E1
:1039C000000502D57B48784402E07A4878441938EB
:1039D00008AA302302F80A30037C0AF10101002E04
:1039E0000AF1020A53546A4602DC4FF0300101E04A
:1039F0004FF031014FF001088DF8001002D0A6F20F
:103A0000FF3603E059EA470100D06B4E002D02DC7F
:103A10002178090704D54FF002082E218DF80110F6
:103A2000C44600210BE0C7F303433F01C35C491CBC
:103A30006D1E02F80830052908F1010801DA002D91
:103A4000F1DC00210CE000EB1973491C1B786D1EA2
:103A5000082902F808304FEA091908F1010801DACB
:103A6000002DF0DC21688B0602D516E0A8F10108D4
:103A7000E04505DD02EB080313F8013C302BF5D0DF
:103A8000B8F1000F09DD02EB080313F8013C2E2BFF
:103A900003D1090701D4A8F10108002D05DD3E215D
:103AA00002F808106D1E08F10108407C002E02F893
:103AB000080008F1010804DA2D20764202F8080017
:103AC00002E02B2002F808000A214FF47A708642A7
:103AD00008F101080BDB96FBF0F3303302F80830F5
:103AE00096FBF0F308F1010800FB136601E0642E79
:103AF0000CDB642096FBF0F3303302F8083096FBC1
:103B0000F0F308F1010800FB136601E00A2E06DB62
:103B100096FBF1F0303002F8080008F1010896FB3E
:103B2000F1F001FB1060303002F80800A16908F1E3
:103B3000010808EB050202EB0A00081AA0612078D0
:103B4000C00602D42046FEF789FF216A08AE01EBC9
:103B50000A00206204E0D4E9012116F8010B904725
:103B6000BAF1010AF7D22078C00602D52046FEF746
:103B700075FF6E4609E016F8010B3E280FD0D4E918
:103B800001219047206A401C2062B8F10108F2D25E
:103B90002046FEF779FF09B0032000F00FB8206A35
:103BA0002844206203E0D4E90121302090476D1EB3
:103BB000EBD3F8E72D6B030002FCFFFF30BCBDE840
:103BC000C08F00002DE9F0411F460446032601681E
:103BD000072A01F4006004DB08B116A505E016A56C
:103BE00003E008B115A500E015A521F01000206044
:103BF000A069C01EA0610FB1401EA0612046FEF763
:103C00002DFF4FB1D4E9012138469047206A401C6E
:103C10002062C01C206206E0206AFAE7D4E9012194
:103C200015F8010B9047761EF8D22046FEF72CFFC0
:103C3000BDE8F0814E414E006E616E00494E460077
:103C4000696E660010B5436913B1AFF3008001E0FF
:103C5000FFF762FD012010BD128800F1240182846B
:103C60000022C2840122EDE711684FF0FF32E9E73C
:103C70002DE9F047814616468AB0354878440DC88C
:103C80008DE80D0032487844801C03AC0DC884E8F0
:103C90000D0041F69B300844372190FBF1F290FB78
:103CA000F1F5A5F1800501FB12041B3C02D564422D
:103CB000012000E00020DFF898A080460027FA44A9
:103CC000AAF1BE0A0EE0E0070AD03246684607EBCA
:103CD000470101230AEB810100F02CFB8DE807006E
:103CE00064107F1C002CEED1194F7F44AE3F19E0C9
:103CF000E80715D007EB04100DF1180A90E80E0044
:103D00008AE80E00C068F04201D198190890324646
:103D1000012306A903A800F00DFB03AB83E807000D
:103D20006D10641C002DE3D14FF00103324669464B
:103D3000B8F1000F03A802D000F0E7FA01E000F0AC
:103D4000F9FAC9E90001C9F808200AB0BDE8F0870E
:103D500008690300007B00F08000704770B51646CC
:103D60000C46054600F044F8036893F80101012869
:103D700006D0FF2C0FD8185D68B101202C7070BDE3
:103D8000D3F807013246214603F2071303442846BD
:103D9000BDE8704018474FF0FF3070BD00487047D5
:103DA000483201207546FFF7F9FFAE460500694627
:103DB000534620F00700854618B020B5FCF7B8FA46
:103DC000BDE820404FF000064FF000074FF000081C
:103DD0004FF0000B21F00701AC46ACE8C009ACE89D
:103DE000C009ACE8C009ACE8C0098D4670470000C6
:103DF00010B5FFF75DFD001D10BD00BFE5B100006F
:103E000010B50446AFF300802046BDE81040FCF733
:103E10007ABA5FEA400C08BF91F0000F4FEA8C239A
:103E20004FEAC12243EA51514FEA1C5018BF00F536
:103E3000F0404FEA300018BF41F000415FEA6C5C8F
:103E400000F02980BCF1FF3F08BF40F08040704780
:103E5000130C06BF12044FF0100C4FF0000C130EA1
:103E600004BF12020CF1080C130F04BF12010CF175
:103E7000040C930F04BF92000CF1020CD30F04BF8B
:103E800052000CF1010C11464FF00002A0F11F008E
:103E9000A0EB0C00704711F0004F08BF704731F0E5
:103EA00000413FF4D5AF0B0C06BF09044FF0100CD6
:103EB0004FF0000C0B0E04BF09020CF1080C0B0FA5
:103EC00004BF09010CF1040C8B0F04BF89000CF135
:103ED000020CCB0F04BF49000CF1010CCCF1200304
:103EE000A0EB0C0022FA03F302FA0CF241EA030100
:103EF00000F10100704720F07F4C80EA030023F0BE
:103F00007F47ACEB070303F57C5300F0004003F15F
:103F1000FF032DE980494FEA154B09B44FEA1443DA
:103F200025EA0B4E24EA03480FF2042606EB13277A
:103F300049083E785FEA320203FB0667C7F50007CF
:103F400007FB06F64FEA54374FEAD64606F102065B
:103F500007FB066CCCF1005C4FEA1C472CEA074CCF
:103F600007FB06F40CFB06F504EB15464FEA961624
:103F700034BF00204FF000404FEAD13706FB07FC6A
:103F80004FEA1C4C0CFB0BF7D21B03FB0CF761EB4D
:103F900007010CFB0EF7B0EB074072EB17420CFB6E
:103FA00008F734BFA2EB0742B2EB074261EB1741BF
:103FB0004FEA0C444FEA910706FB07FC4FEA1C4C02
:103FC0000CFB0BF7B0EBC74072EB573203FB0CF75F
:103FD00034BFA2EBC742B2EBC74261EB57310CFBD7
:103FE0000EF7B0EBC70072EB57720CFB08F734BF4B
:103FF000A2EBC702B2EBC70261EB5771039F4FEA16
:10400000816141EA921104EBCC044FEAD1374FEAC7
:10401000826206FB07FC42EA90124FEA80604FEA98
:104020001C4C0CFB0BF7D21B03FB0CF761EB0701DD
:104030000CFB0EF7B0EB074072EB17420CFB08F7D6
:1040400034BFA2EB0742B2EB074261EB17414FEAE4
:104050008C554FEA910704EB9C2406FB07FC4FEAC2
:104060001C4C0CFB0BF7B0EBC74072EB573203FB59
:104070000CF734BFA2EBC742B2EBC74261EB57313A
:104080000CFB0EF7B0EBC70072EB57720CFB08F796
:1040900034BFA2EBC702B2EBC70261EB577115EB5D
:1040A0004C254FEA816141EA92114FEA82624FEA60
:1040B000D13742EA901206FB07FC44F100044FEAB4
:1040C00080604FEA1C4C0CFB0BF7D21B03FB0CF778
:1040D00061EB07010CFB0EF7B0EB074072EB1742E8
:1040E0000CFB08F734BFA2EB0742B2EB074261EBCF
:1040F000174115EB1C154FEA813141EA92414FEA15
:10410000823242EA90424FEA80304FEA0C7644F124
:10411000000448EA03434EEA0B484FF0000EB2EBAE
:10412000080C71EB030724BF624639464EEB0E0EB6
:104130004FF0000B0018524149414BEB0B0BB2EB17
:10414000080C71EB03077BF1000B24BF6246394674
:104150004EEB0E0E4FF0000B0018524149414BEB55
:104160000B0BB2EB080C71EB03077BF1000B24BFC8
:10417000624639464EEB0E0E51EA020718BF46F072
:10418000010616EB0E7655F1000254F1000103D53D
:10419000BDE88901BDE80088BDE88901BDE80048A7
:1041A000B619524141EB0101A3F101037047808030
:1041B0007F7E7D7C7B7A7978777676757473727181
:1041C00071706F6E6E6D6C6C6B6A6A696868676639
:1041D00066656464636362616160605F5F5E5E5DCB
:1041E0005D5C5C5B5B5A5A5959585857575656553F
:1041F00055555454535352525251515050504F4FA1
:104200004F4E4E4D4D4D4C4C4C4B4B4B4A4A4A49F0
:104210004949484848474747474646464545454433
:104220004444444343434342424242414141002BC0
:104230009C4630D477002BD01CB54FEA370703B427
:104240004FF010004FF01001BAF1000F06D0BCF192
:10425000000FDCBF40F0080040F008014FF0000004
:104260000FBCBDE810400BF1010BBBF1010F08BF03
:104270005FEA170722BF12F1010211F101014FF0AD
:10428000004143F1000300F0004043EA00007047A2
:10429000F9D35708D0E746EA064613F1400F4FEA34
:1042A00016461FDD13F1200FDFBF16430A4600211B
:1042B00020335B42BED0C3F1200746EA064602FA2D
:1042C00007F74FEA164646EA0706C3F1200722FA27
:1042D00003F201FA07F721FA03F14FF0000342EA73
:1042E0000702A7E746EA020646EA06464FEA1646EE
:1042F00046EA0106BCBF46EA0646360C4FF000030C
:104300004FF000024FF0000194E72DE9804C9A46EF
:10431000934670B491E8380007C831EA400C48BFB2
:1043200034EA430C03D5FFF7E6FDFFF780FFF0BC4E
:10433000BDE8008C2DE9804C9A46934670B491E814
:10434000380007C810F0804F08BF13F0804F03D12A
:1043500000F005F8FFF76BFFF0BCBDE8008C20F023
:104360007F4780EA030023F07F4C07EB0C03A3F5A3
:104370007C5300F00040A3F1FE0392F0000F00F028
:10438000B38095F0000F00F077802DE901494FEAE6
:1043900011404FEA144621EA004800FB06FC24EADB
:1043A000064708FB06F607FB08F800FB07F718EBC3
:1043B00006484CEB164C4FEA124B18EB07484FEAF5
:1043C00015464CEB174022EA0B4E0BFB06FC25EA88
:1043D00006470EFB06F607FB0EFE0BFB07F71EEB70
:1043E000064E4CEB164C4FF000061EEB074E4CEB06
:1043F000174B18EB0B0840F1000018EB0E0B58EBB5
:10440000000840F100008F1A4FF000013CBFC94383
:10441000661B14BFB5EB040C00213CBFC943F61B5F
:104420004FEA17444EEA8E0E27EA04454FEA1C472E
:1044300004FB07622CEA074C05FB07F70CFB05F6AB
:1044400004FB0CFC16EB074642EB174216EB0C463E
:1044500042EB1C421BEB060658EB0202414146EAC6
:104460009E0601D5BDE80189B619524141EB010113
:10447000A3F10103BDE801894FEA14454FEA114752
:1044800024EA054621EA074C05FB07F406FB07F77B
:104490000CFB06F105FB0CFC11EB074144EB174448
:1044A0004FEA124711EB0C4144EB1C4422EA074C43
:1044B00005FB07F206FB07F70CFB06F605FB0CFCF9
:1044C00016EB074642EB174216EB0C4642EB1C4537
:1044D0006A1854F1000148BF7047B619524141EBC8
:1044E0000101A3F10103704795F0000F37D04FEAA7
:1044F00011424FEA144721EA024624EA074C02FB24
:1045000007F106FB07F70CFB06F402FB0CFC14EBAF
:10451000074441EB17414FEA154714EB0C4441EBBC
:104520001C4125EA074C02FB07F506FB07F70CFBCD
:1045300006F602FB0CFC16EB074645EB174516EB9F
:104540000C4645EB1C42121951F1000148BF70475F
:10455000B619524141EB0101A3F1010370474FEA43
:1045600014454FEA114724EA054621EA074C05FBAA
:1045700007F106FB07F70CFB06F24FF0000605FB00
:104580000CFC12EB074241EB174112EB0C4251EBD2
:104590001C4148BF7047921841EB0101A3F1010390
:1045A0007047FEE77047C8B101680A6822F00E0242
:1045B0000A6001680A6822F001020A6090F844105B
:1045C000012301F01C0203FA02F1026C516080F831
:1045D0002530002180F824100846704701207047DC
:1045E00010B590F825100024022903D00421C163DE
:1045F00001241AE001680A6822F00E020A600168CC
:104600000A6822F001020A6090F84410012301F0C8
:104610001C0203FA02F1026C516080F8253000217F
:1046200080F82410816B01B18847204610BD00003E
:104630002DE9F84FDFF8A091002209F1040A0AF1F0
:10464000040B4FF00F080BF1040EBEE00124944060
:10465000234075D04D68022D01D0122D11D1D508FF
:1046600000EB85073E6A5507ED0E08FA05FC26EAC1
:104670000C06D1F810C00CFA05FC4CEA060CC7F881
:1046800020C007685500032691F804C0AE400CF026
:10469000030CB7430CFA05FC4CEA070CC0F800C049
:1046A0004F68012F05D0022F03D0112F01D0122FF8
:1046B00015D18768D1F80CC0B7430CFA05FC4CEA59
:1046C000070CC0F808C0476891F804C0A743CCF3B2
:1046D000001C0CFA02FC4CEA070CC0F804C0D1F82C
:1046E00004C06FEA0C07BF0706D1C76AA743CCF323
:1046F000C00494403C43C462C468B4438E68AE4076
:104700002643C6604C68E4005ED5344C256E45F007
:1047100001052566246E22F0030504F001040094CF
:104720002F4C2E19B7689407250F08FA05F4A743F4
:10473000B0F1904F05D02B4CA04204D101241CE0D5
:1047400042E0002419E0284CA04201D1022414E0E8
:10475000264CA04201D103240FE0254CA04201D1F8
:1047600004240AE0234CA04201D1052405E0224C98
:10477000A04201D1062400E00724AC403C43B460D1
:10478000D9F800404D464E689C43F60300D51C43C3
:104790002C60DAF8004055464E689C43B60300D5BD
:1047A0001C432C60DBF800405D464E689C43F602DB
:1047B00000D51C432C60DEF8004075464E689C43D3
:1047C000B60200D51C432C60521C0B6833FA02F46D
:1047D0007FF43CAF00F012B800040140001002402A
:1047E000000001400004004800080048000C004898
:1047F00000100048001400480018004818BCBDE82C
:10480000E08F0069084000D0012070470AB1816143
:1048100070478162704700000148006870470000DF
:104820000400002002480168491C01607047000034
:104830000400002010B50024052000F04FF80020EF
:1048400000F008F808B1012401E000F01BF8204650
:1048500010BD000070B5054609484FF47A71002478
:104860000068B0FBF1F001F031F808B1012404E078
:1048700000222946501E00F011F8204670BD0000AD
:1048800000000020704700F01F0201219140400904
:10489000800000F1E020C0F800117047F0B40E4B2A
:1048A0001B68C3F30223C3F10704042C00D90424BA
:1048B0001D1D072D01D2002300E0DB1E012606FA94
:1048C00004F56D1E0D409D409E40761E164045EA43
:1048D0000601F0BC01F070BC0CED00E0064A00F0EF
:1048E000070110684FF6FF03184040EA0120034912
:1048F00008431060704700000CED00E00000FA056E
:104900001649B0F5007F0868C0F3412009D002289D
:1049100005D0086820F4C06040F480600860002082
:1049200070470128FBD0086820F4C06040F4007094
:1049300008600B483222006850430A4AB0FBF2F08C
:10494000401C00E0401E4A69520501D50028F9D1FB
:1049500048694005E3D5032070470000007000401F
:104960000000002040420F000248006800F4C060D0
:104970007047000000700040F8B504460025FFF7BE
:104980004BFF064694F83900800736D5002084F89E
:1049900038002068016849070BD5016821F004013F
:1049A0000160606BFFF7FFFD18B1E06B40F00400A1
:1049B000E0632068016841F002010160206C009012
:1049C000334601220221204601F024FD050014D1C6
:1049D00021680220C860206C00903346002220210C
:1049E000204601F017FD050007D12068416921F03C
:1049F00040614161012084F839002846F8BD2DE965
:104A0000F84F17468B460446FFF706FF824694F898
:104A1000380001280ED0012684F8386094F8390057
:104A20004FF00008012807D0022584F83880284676
:104A300000F028B80220FBE7C4F83C804FF00209E0
:104A400084F839905346002220212046009701F037
:104A5000E1FC0500E9D100225946204601F0BDFBEA
:104A6000DBF8240058B95346012202212046009762
:104A700001F0D0FC0500D8D12168C1F80C9084F871
:104A80003960D2E718BCBDE8E08F0000F8B50446F5
:104A9000FFF7C2FE07465CB194F83800012809D040
:104AA000012684F8386094F83900002520B10BE025
:104AB0000120F8BD0220F8BD84F83850204600F0EF
:104AC0003DF841F28830206420680168A2686FF0E8
:104AD000FF0321F4706103EB022211430160206C9B
:104AE00000903B4600222021204601F093FCE8B9CB
:104AF00021680A680F4B1A40237942EA0362E3688F
:104B00001A430A60D4E905210A4321684B680A4F19
:104B10003B40278A43EA07431A434A6021680A68F0
:104B200042F001020A60E56384F8396084F8385085
:104B3000F8BD0000EFFFFF00FEF8E0FF114800B5F0
:104B4000016D87B041F480710165016D01F48071E0
:104B50000591C16C41F01001C164C06C694600F060
:104B6000100005904FF47C4000900220019000203E
:104B70000290032003900A2004900348FFF758FD99
:104B800007B000BD00100240001000482DE9F84FAA
:104B900016460F460446FFF73FFE824620688169AD
:104BA00094F8382000F12005012A0ED04FF00108BA
:104BB00084F8388094F839204FF00009012A06D093
:104BC000022084F8389000F043B80220FBE7C4F8D4
:104BD0003C90B7B3222284F839200269521C226328
:104BE0000269521CE262A762426922F0406242F00E
:104BF00080624261206881610DE00621204601F05B
:104C000009FCD8B92878A16A0870A06A401CA06283
:104C1000206B401E2063206B53464FF0010200962C
:104C20000028EAD14FF00201204601F0F3FB28B939
:104C300021680220C8602046FFF79EFE84F8398074
:104C4000BFE7FFE7E06B40F00800E0630120B8E752
:104C500018BCBDE8E08F2DE9F84F16460F46044614
:104C6000FFF7DAFD8246206894F8381000F120053D
:104C700001290ED04FF0010884F8388094F83910DB
:104C80004FF00009012906D0022084F8389000F086
:104C90003FB80220FBE7C4F83C9097B3122184F898
:104CA00039100169491C61620169491C2162E7618F
:104CB000416921F0406141610DE00421204601F08D
:104CC000A9FBD8B9E06900782870E069401CE06170
:104CD000606A401E6062606A53464FF001020096AF
:104CE0000028EAD14FF00201204601F093FB28B9D9
:104CF00021680220C8602046FFF73EFE84F8398014
:104D0000C3E7FFE7E06B40F00800E0630120BCE789
:104D100018BCBDE8E08F00002DE9F0470D46040007
:104D20005ED0DFF80881D8F8000000F00700A84244
:104D30000CD2D8F8001021F007012943C8F8001060
:104D4000D8F8000000F00700A84249D12078384E7A
:104D5000C0072BD06068032811D0022812D0316818
:104D600098B1490500293BDAB16821F003010143FC
:104D7000B160FFF751FD074641F288390FE0316815
:104D80008901EFE731688903ECE78907EAE7FFF774
:104D900043FDC11B494502D90320BDE8F087B06837
:104DA000616800F00C00B0EB810FF0D12078800733
:104DB00005D5B068A16820F0F0000843B060D8F8CD
:104DC0000010404601F00701A9420BD9016821F00B
:104DD000070129430160006800F00700A84201D0E4
:104DE0000120DAE72078400705D5B068E16820F4B3
:104DF000E0600843B0602078000706D5B0682169FC
:104E000020F4605040EAC100B06000F03BF8B168A7
:104E1000084AC1F30311515C01F01F01C840064963
:104E20000860BDE8F0470020FFF714BD00200240F5
:104E30000010024090F700080000002005480649D5
:104E400000688968054AC1F30221515C01F01F0125
:104E5000C84070470000002000100240D0F7000852
:104E60000548064900688968054AC1F3C221515CBA
:104E700001F01F01C84070470000002000100240F0
:104E8000D0F7000870B5264B002210469968DC6800
:104E900011F00C0104F00306224C4FEA640508D01F
:104EA0000C2904D0042925D0082925D010E0012E92
:104EB00010D11A68120704D4D3F89420C2F3032245
:104EC00002E01A68C2F30312174E56F8222079B195
:104ED0000C290ED1D86800F00301D868C0F3021085
:104EE000401C02290AD003290BD0B2FBF0F00AE0E3
:104EF000104670BD204670BD284670BDB4FBF0F072
:104F000001E0B5FBF0F0D968C1F306214843D96848
:104F1000C1F34161491C4900B0FBF1F070BD0000D4
:104F2000001002400024F400A0F700082DE9F84327
:104F300004007CD0FA4DA86800F00C06E86800F088
:104F400003072078C00662D576B10C2E01D1012F5F
:104F50000AD0A0690028286878D040F001002860B5
:104F6000FFF75AFC804659E02868800702D5A069FF
:104F70000028DED0216A2868000703D5286800F0E1
:104F8000F00004E0D5F89400F02202EA101081420B
:104F900016D9084601F062FA002848D1286840F086
:104FA000080028602868216A20F0F0000843286083
:104FB0006868E16920F47F4040EA0120686015E0FC
:104FC000286840F0080028602868216A20F0F00076
:104FD000084328606868E16920F47F4040EA0120C6
:104FE0006860206A01F03AFA0028D6D1FFF74AFF3C
:104FF000A968CC4AC1F30311515C01F01F01C840FC
:10500000C94908600020FFF725FC00287ED12DE06B
:10501000FFF702FCA0EB0800022878D82868800778
:10502000F6D5286840F008002860286801E0B8E05C
:105030000CE0216A20F0F000084328606868E1690C
:1050400020F47F4040EA012068600FE020F001007A
:105050002860FFF7E1FB804605E0FFF7DDFBA0EBF2
:1050600008000228D9D828688007F6D42078C0071D
:1050700040D0082E18D00C2E01D1032F14D0606818
:10508000B0F5803F17D0B0F5A02F286817D020F4D6
:1050900080302860286820F4802028606068E0B1B3
:1050A000FFF7BAFB804614E02868800322D56068C9
:1050B000002876D01EE0286840F48030EDE740F408
:1050C00080202860F7E7FFF7A7FBA0EB0800642823
:1050D000A3D828688003F6D50CE0FFF79DFB804637
:1050E00005E0FFF799FBA0EB0800642895D8286835
:1050F0008003F6D42078800739D5042E11D00C2EE9
:1051000001D1022F0DD0E068002801E02DE19BE0E5
:1051100028681DD040F480702860FFF77DFB0746AB
:105120000BE0286840050BD5E0680028C1D007E0F7
:10513000FFF772FBC01B022894D828684005F7D5FA
:105140006868217C20F0F85040EA016068600EE059
:1051500020F480702860FFF75FFB074604E0FFF74C
:105160005BFBC01B02286FD828684005F7D4207865
:10517000000728D560690028D5F8940012D040F0C7
:105180000100C5F89400FFF747FB074604E0FFF76E
:1051900043FBC01B022857D8D5F894008007F6D5EA
:1051A00011E0E9E020F00100C5F89400FFF734FBBE
:1051B000074604E0FFF730FBC01B022844D8D5F8AF
:1051C00094008007F6D42078400766D5A86D4FF08C
:1051D0000008C00009D4A86D40F08050A865A86DF3
:1051E0004FF0010800F08050009050480168C90558
:1051F00011D40168814641F480710160FFF70CFB16
:10520000074604E0FFF708FBC01B02281CD8D9F8AA
:105210000000C005F6D5A068012816D00528D5F8ED
:10522000900017D020F00100C5F89000D5F890004C
:1052300020F00400C5F89000A06841F28839C0B1A0
:10524000FFF7EAFA07460FE069E0D5F8900040F072
:105250000100EFE740F00400C5F89000F5E7FFF724
:10526000DBFAC11B49457FD8D5F890008007F6D5F9
:105270000CE0FFF7D1FA074604E0FFF7CDFAC11BB7
:10528000494571D8D5F890008007F6D4B8F1000FE1
:1052900003D0A86D20F08050A865A06AF0B30C2E52
:1052A0006AD00228286820F08070286004D028681E
:1052B00010F0205F47D04AE0FFF7AEFA064604E060
:1052C000FFF7AAFA801B02284ED828688001F7D47D
:1052D000206BE16A000110380843616BA26B090280
:1052E000120941EA42410843A18F114A490802EBE1
:1052F0004151084394F840104908120102EB416102
:105300000843E860286840F080702860E86840F052
:105310008070E860FFF780FA044610E02AE023E09E
:105320000010024090F700080000002000700040CC
:105330000000E0FFFFF770FA001B022814D828686D
:105340008001F7D516E0E86820F00300E860E8681F
:105350000A490840E860FFF75FFA044607E0FFF7F4
:105360005BFA001B022802D90320BDE8F8832868F5
:105370008001F4D40020F8E70120F6E7FFFFEEFEFD
:105380002DE9F041040005D00025A56294F85D00E8
:1053900018B107E00120BDE8F08184F85C50204698
:1053A00000F044F8022684F85D602068016821F06E
:1053B00040010160E0684FF4E062904201D90021B1
:1053C00001E04FF48051B0F5706F02D0904200D0F0
:1053D000A562276B012327B9904201D9266300E01B
:1053E0002363D4E901021043D4E904263243104375
:1053F000228B02F400721043E2691043226A1043C8
:10540000A26A104322681060626B606AA66910434A
:105410000427E26807EA164632431043084321682E
:105420004860256684F85D300020B4E72DE9F0413E
:10543000054600682149224C0226012786B04FF01C
:105440000308884219D1E06C40F00100E064E06C90
:1054500000F001000590206E40F480502066206E20
:10546000694600F480500590E0208DE8C1010520D8
:1054700004904FF09040FFF7DBF81249286888420B
:1054800018D1E06C40F00200E064E06C00F0020033
:105490000590A06D40F40040A065A06D694600F441
:1054A0000040059028208DE8C101062004900648A0
:1054B000FFF7BEF806B0BDE8F08100000030014003
:1054C00000100240003C0040000400482DE9F84F65
:1054D000044690F85C0000261D4690468946012847
:1054E0000ED04FF0010B84F85CB0FFF795F907463A
:1054F00094F85D004146B246012804D00226A0E09F
:10550000022000F0A4B8B9F1000F71D0B8F1000F7B
:105510006ED0032084F85D00C4F860A0C4F8389011
:10552000A4F83C80A4F83E80C4F840A0A4F844A0AD
:10553000A4F846A0C4F850A0C4F84CA0A068B0F5E8
:10554000004F04D12068026842F480420260206863
:105550000268520603D4026842F040020260E0682A
:10556000B0F5E06F606822D908B101291BD1A06BAA
:1055700021680088C86006E020688168890709D52D
:10558000A16B0988C160A06B801CA063E08F401EE6
:10559000E08708E0FFF740F9C01BA84202D3681C6F
:1055A00001D045E0A5B3E08F0028E5D135E008B192
:1055B00001292FD1E08F0128A06B03D92168008831
:1055C000C8600FE021680078087314E0E08721E0EC
:1055D00020688168890714D5E18F0129A16B08D95A
:1055E0000988C160A06B801CA063E08F801EEDE77E
:1055F00026E009780173A06B401CA063E08F401E79
:10560000E4E7FFF709F9C01BA84202D3681C01D0E8
:105610000EE06DB1E08F0028DAD13A4629462046E7
:1056200001F008FA08B120202066A06810B105E05A
:10563000032606E02068C16880680090206E00B1F3
:10564000012684F85DB084F85CA0304659E718BCA8
:10565000BDE8E08F2DE9F05F044690F85C0001257D
:105660000A9E1F4692468B464FF0000801280ED036
:10567000012084F85C00FFF7CFF8814694F85D00C4
:10568000616801280CD0B1F5827F07D102E00220C9
:1056900000F00DB9A16809B9042801D0022004E185
:1056A000BBF1000F24D0BAF1000F21D007B394F85A
:1056B0005D00042802D0052084F85D0000202066EB
:1056C000C4F840A0A4F84670A4F84470C4F838B0F8
:1056D000E787A787E0642065E0684FF4E0618842CF
:1056E00001D8012F06D92068426822F4805205E0D3
:1056F0000120DAE02068426842F48052426020686B
:105700000268520603D4026842F040020260E06878
:105710008842606842D908B1012F37D1A06B216857
:105720000088C860A06B801CA063E08F401EE087EB
:105730002CE02068816889070DD5E18F59B1012DD2
:1057400009D1A16B0988C160A06B801CA063E08FA8
:10575000401EE087002520688168C9070ED0B4F894
:10576000461059B1C068216C0880206C801C2064F0
:10577000B4F84600401EA4F846000125FFF74CF897
:10578000A0EB0900B04201D3701C72D1E08F002859
:10579000CFD1B4F846000028CBD173E008B1012F77
:1057A00069D1E08F0128A06B08D921680088C86002
:1057B000A06B801CA063E08F801E07E0216800784A
:1057C0000873A06B401CA063E08F401EE08752E08E
:1057D00020688168890718D5E18FB1B1012D14D1F6
:1057E000E18F0129A16B07D90988C160A06B801CDA
:1057F000A063E08F801E06E009780173A06B401C57
:10580000A063E08F401EE087002520688168C907FB
:1058100027D0B4F8461021B3B4F84610012914D9A2
:10582000C068216C0880206C801C2064B4F846009D
:10583000801EA4F84600B4F84600012810D820685D
:10584000416841F4805141600AE0007B216C08709E
:10585000206C401C2064B4F84600401EA4F84600AA
:105860000125FEF7D9FFA0EB0900B04202D3701C5E
:1058700001D019E0C6B1E08F0028A9D1B4F84600E4
:105880000028A5D14A463146204601F0D3F818B188
:1058900020204FF001082066012084F85D000020E0
:1058A00084F85C004046F3E603208046F4E730BC11
:1058B000BDE8C09F4FF0E0210428086903D020F024
:1058C00004000861704740F00400FAE710B5401E7C
:1058D000B0F1807F01D3012010BD4FF0E024606162
:1058E0000F21601700F068FC0020A06107202061F4
:1058F000002010BD10B5040003D094F83D0010B195
:1059000007E0012010BD002084F83C00204600F094
:105910000CF8022084F83D00211D206801F0BAF93E
:10592000012084F83D00002010BD70470168CA685E
:1059300042F00102CA600068826807490A40062AEC
:1059400008D082680A40B2F5803F03D0016841F078
:105950000101016000207047070001007047704797
:105960002DE9F04102680446D0691168936810F08F
:105970000F0F4FF000055BD003F0010601F49077A4
:10598000374369D0C70707D0CF0505D50127176270
:10599000626F42F001026267820708D5DA0706D01B
:1059A000276802223A62626F42F00402626742078D
:1059B00008D5DA0706D0236804221A62626F42F023
:1059C0000202626702070AD501F02002324306D0C4
:1059D000236808221A62626F42F008026267626FEF
:1059E000002A32D0800605D5880603D5216E09B17C
:1059F00020468847606F000703D42068806840060F
:105A000025D5204601F06CFA20688168490619D531
:105A1000816821F040018160E06E98B12049816386
:105A2000E06EFEF7DDFD00280FD0E06E816B06E032
:105A3000860611D58E060FD5216E1EE02046BDE8E4
:105A4000F04108472046FFF78AFFBDE8F081204675
:105A5000FFF785FF6567F8E7C60209D55B0207D542
:105A60004FF4801010622046BDE8F041FFF776BF8A
:105A7000030605D50B0603D5616E0029DED1E4E7E8
:105A80004006E2D54806E0D51168204621F04001E5
:105A90001160202184F87110656600F0E4F8D4E705
:105AA000CD6E000810B5040003D094F8710010B159
:105AB00007E0012010BD002084F87000204600F0AF
:105AC00027F8242084F871002068016821F0010182
:105AD0000160204601F014FA0128EBD0606A10B191
